:100000000C9477030C9494030C94B1030C94A60302
:100010000C9494030C9494030C9494030C94940304
:100020000C9494030C9494030C9494030C949403F4
:100030000C9494030C9494030C9494030C949403E4
:100040000C9494030C9494030C9494030C949403D4
:100050000C9494030C9494030C9494030C949403C4
:100060000C9494030C9494030C9494030C949403B4
:10007000084AD73B3BCE016E84BCBFFDC12F3D6C0F
:1000800074319ABD56833DDA3D00C77F11BED9E475
:10009000BB4C3E916BAAAABE000000803F0000004E
:1000A0000000005C00000C000C007C287C2858DC60
:1000B00068002410480028542840000C00000078F4
:1000C00084008478000054385400107C1000804074
:1000D0000000101010000040000060100C003854A8
:1000E0003800487C40004864580044542C001C10E0
:1000F0007C005C5424003854240064140C006854C0
:100100002C004854380000480000804800001028A7
:1001100044002828280044281000045408003844CB
:100120005C00781478007C542800384428007C4413
:1001300038007C5444007C140400384474007C1063
:100140007C00447C440020403C007C106C007C40DF
:1001500040007C187C0078103C00384438007C1447
:1001600008003844B8007C14680048542400047C1B
:1001700004007C407C003C603C007C307C006C10C7
:100180006C000C700C0064544C00007C44000C109B
:100190006000447C000008040800808080000004A7
:1001A0000800304878007C4830003048480030482B
:1001B0007C00306850001078140090A878007C080B
:1001C000700050744000808074007C106800447C93
:1001D0004000781078007808700030483000F82827
:1001E00010003048F8007810080050582800083CEB
:1001F000480038407800384038007820780048308F
:10020000480098A078004868580010788400007C66
:1002100000008478100008040804000000000000BA
:10022000005F00000007000700147F147F14242AD9
:100230007F2A1223130864623649552250000503B1
:100240000000001C2241000041221C00082A1C2A38
:100250000808083E08080050300000080808080890
:10026000006060000020100804023E5149453E0035
:10027000427F400042615149462141454B311814AB
:10028000127F1027454545393C4A494930017109DB
:1002900005033649494936064949291E00363600C4
:1002A00000005636000000081422411414141414DF
:1002B00041221408000201510906324979413E7E6B
:1002C0001111117E7F494949363E414141227F410A
:1002D00041221C7F494949417F090901013E4141B1
:1002E00051327F0808087F00417F41002040413F94
:1002F000017F081422417F404040407F0204027F7A
:100300007F0408107F3E4141413E7F090909063EB6
:100310004151215E7F091929464649494931010168
:100320007F01013F4040403F1F2040201F7F201899
:10033000207F631408146303047804036151494562
:100340004300007F4141020408102041417F00002A
:100350000402010204404040404000010204002029
:10036000545454787F4844443838444444203844F2
:1003700044487F3854545418087E09010208145424
:10038000543C7F0804047800447D40002040443DF4
:1003900000007F10284400417F40007C041804784E
:1003A0007C0804047838444444387C141414080845
:1003B0001414187C7C080404084854545420043F46
:1003C0004440203C4040207C1C2040201C3C4030CD
:1003D000403C44281028440C5050503C4464544C39
:1003E00044000836410000007F000000413608004C
:1003F0000201030201000000000000000000065F8F
:100400005F060000000007070007070000147F7F59
:10041000147F7F1400242E6B6B3A12000046663066
:10042000180C666200307A4F5D377A480004070383
:100430000000000000001C3E63410000000041631A
:100440003E1C000000082A3E1C1C3E2A0808083EEC
:100450003E0808000000A0E0600000000008080856
:10046000080808000000006060000000006030180C
:100470000C060301003E7F594D7F3E000042427F43
:100480007F40400000627359496F66000022634953
:10049000497F360000181C16137F7F100027674520
:1004A000457D3900003C7E4B497930000003637183
:1004B000190F070000367F49497F360000064F4973
:1004C000693F1E000000006C6C0000000000A0EC02
:1004D0006C00000000081C36634100000014141476
:1004E0001414140000004163361C0800000203517C
:1004F000590F0600003E7F415D5D1F1E007C7E138C
:10050000137E7C0000417F7F49497F36001C3E639B
:100510004141632200417F7F41637F1C00417F7F17
:10052000495D416300417F7F491D0103001C3E631B
:1005300041517372007F7F08087F7F000000417F78
:100540007F41000000307040417F3F0100417F7FCC
:10055000081C776300417F7F41406070007F7F0609
:100560000C067F7F007F7F060C187F7F001C3E6398
:1005700041633E1C00417F7F49090F06001E3F2159
:10058000717F5E0000417F7F19396F460026674DFD
:10059000597B32000003417F7F410300007F7F4091
:1005A000407F7F00001F3F60603F1F00007F7F3063
:1005B00018307F7F0063771C081C776300074F7833
:1005C000784F0700006773594D47637100007F7FC4
:1005D00041410000000103060C1830600000414159
:1005E0007F7F000000080C0603060C080080808056
:1005F0008080808080000003070400000020745485
:10060000543C784000413F7F44447C3800387C446F
:10061000446C280000307848493F7F4000387C54C3
:10062000545C180000487E7F490302000098BCA477
:10063000A4F87C0400417F7F08047C780000447D9E
:100640007D4000000040C484FD7D000000417F7FAC
:1006500010386C440000417F7F400000007C7C0C1F
:10066000180C7C78007C7C04047C780000387C4486
:10067000447C38000084FCF8A4243C1800183C2476
:10068000A4F8FC8400447C78441C180000485C54A6
:10069000547424000000043E7F442400003C7C404D
:1006A000403C7C40001C3C60603C1C00003C7C608A
:1006B00030607C3C00446C3810386C44009CBCA01A
:1006C000A0FC7C00004C64745C4C64000008083E94
:1006D000774141000000000077770000004141773A
:1006E0003E08080000020301030203010000112478
:1006F0001FBECFEFD4E0DEBFCDBF13E0A0E0B1E07E
:10070000E4E4F1E302C005900D92A838B107D9F7EF
:1007100023E0A8E8B3E001C01D92AE39B207E1F7CB
:100720000E94BC030C94A0180C9400003098F8941C
:1007300086B7816086BF8BB780628BBF85B78C60C0
:1007400085BF8BB780688BBF789408951F920F92F6
:100750000FB60F921124C0980F900FBE0F901F90EC
:1007600018951F920F920FB60F921124C09A0F90F6
:100770000FBE0F901F90189580E895E20E94E0034D
:100780000E94960383E087BB92E088B3892788BBE9
:100790002FEF3FEF8EE0215030408040E1F700C066
:1007A0000000F3CF5D9BFECF8CB980E090E0089510
:1007B0005F9B03C08CB190E0089580E090E00895C5
:1007C00082959295907F9827807F98279C0140E0A2
:1007D00050E060E070E08BE490E00E94AE10CA014F
:1007E000B90161507109810991090E9449122AE9F0
:1007F00039E949E15EE30E9404130E94111270BDC1
:1008000069B988E18AB98EE880BD68ED73E082ED50
:1008100093E00E940114089580E885BF80E280BFC4
:100820000895CF92DF92EF92FF920F931F93CF9391
:10083000DF938EE091E09F938F930E944C140E946F
:10084000C1137C010E94C6130F900F90C12CD12CB4
:10085000C0E0D0E006E211E00E94C113F601F85EAC
:10086000808320812817A1F099279F938F931F924F
:100870002F93DF92CF921F930F930E944C142196D7
:100880008DB79EB708960FB6F8949EBF0FBE8DBF6A
:100890009FEFC91AD90AC11488E0D806E9F6C70142
:1008A0000E94C61300E010E0E12CF12C0F2EF0E6C0
:1008B000CF2EF1E0DF2EF02D0E94C113F801F85E7B
:1008C00020812817B1F099279F938F931F922F9320
:1008D0001F930F93DF92CF920E944C149FEFE91A5F
:1008E000F90A8DB79EB708960FB6F8949EBF0FBE53
:1008F0008DBF0F5F1F4F011598E01907E9F6FF92B2
:10090000EF92DF93CF938EE991E09F938F930E94B4
:100910004C140F900F900F900F900F900F90DF914D
:10092000CF911F910F91FF90EF90DF90CF9008959E
:10093000E0E0F4E1808387E893E10197F1F700C0FC
:1009400000008081089584E090E00E94980490E087
:10095000909393038093920385E090E00E94980423
:1009600090E090939103809390030895CF92DF924B
:10097000EF92FF92CF93DF9384E090E00E9498047F
:10098000C0919203D0919303682F70E080E090E0D3
:100990000E9447126B017C01BE01DD0F880B990B91
:1009A0000E9449129B01AC01C701B6010E940311CC
:1009B0000E94111277237CF0072E000C880B990BF4
:1009C0000E94491224EA30E74DE35FE30E949F1141
:1009D0000E9411120EC0072E000C880B990B0E946A
:1009E000491223E333E343EB5FE30E949F110E942C
:1009F0001112CB010496099710F460E070E06C3995
:100A00008FEF780714F46CE97FEFCB016536710541
:100A100014F084E690E0DF91CF91FF90EF90DF90AB
:100A2000CF900895CF92DF92EF92FF92CF93DF9312
:100A300085E090E00E949804C0919003D0919103CA
:100A4000682F70E080E090E00E9447126B017C010B
:100A5000BE01DD0F880B990B0E9449129B01AC016E
:100A6000C701B6010E9403110E94111277237CF086
:100A7000072E000C880B990B0E94491228EB3EE1CF
:100A800045E45FE30E949F110E9411120EC0072EE1
:100A9000000C880B990B0E94491223E333E343EBCC
:100AA0005FE30E949F110E941112CB0104960997E7
:100AB00010F460E070E06C398FEF780714F46CE9A3
:100AC0007FEFCB016536710514F084E690E0DF918D
:100AD000CF91FF90EF90DF90CF900895009771F045
:100AE0008130910571F08230910571F0833091056C
:100AF00071F0049779F084E092E008958AEF91E034
:100B000008958CEF91E008958EEF91E0089580E0D4
:100B100092E0089582E092E00895CF92DF92EF9202
:100B2000FF92CF93DF930E94B604EC010E9412055E
:100B3000BC01990F880B990B0E9449126B017C0133
:100B4000BE010D2E000C880B990B0E9449129B01CF
:100B5000AC01C701B6010E949F110E94701120E0F4
:100B600030E044E353E40E9404132BED3FE049E4FA
:100B700050E40E949F110E9411129B01DD2314F486
:100B80002C543F4F332314F428593E4FC901DF91B1
:100B9000CF91FF90EF90DF90CF900895CF93DF93A8
:100BA0000E94B604EC010E9412059E01215B3F4F9A
:100BB0002F39310530F49C01215B3F4F2F3931052E
:100BC000F8F0BC01CE010E948D059C012B533140F1
:100BD0002E323105C0F08E329105C0F0235F3E4FBA
:100BE00029353105B0F0295531092B353105A0F0F3
:100BF000825E91098935910590F080E090E011C006
:100C000080E090E00EC081E090E00BC081E090E0D9
:100C100008C083E090E005C082E090E002C084E07C
:100C200090E0DF91CF91089586E090E00E949804D3
:100C3000682F70E080E090E00E94471220E030E0F2
:100C400048EC52E40E94041320E030E04FE753E404
:100C50000E949F110E941112CB01089587E090E03D
:100C60000E949804682F70E080E090E00E94471294
:100C700020E030E048EC52E40E94041320E030E031
:100C80004FE753E40E949F110E941112CB01089577
:100C900086B3817090E0089586B38695817090E068
:100CA000089586B38695869591E08927817090E0B6
:100CB0000895E0910201F09103018083089520914D
:100CC000000130910101820F931FFC0160830895A0
:100CD000282F30E0F901EE0FFF1FEE0FFF1FEE0F80
:100CE000FF1FEB50FD4F220F331F220F331F220F28
:100CF000331F23503D4FA0910001B0910101949109
:100D00009C933196E217F307B1F70895653019F116
:100D1000683021F0643009F079C052C090E0FC01E5
:100D2000EE0FFF1FEE0FFF1FEE0FFF1FEB50FD4FEB
:100D3000880F991F880F991F880F991F83509D4F07
:100D4000A0910001B091010124912C933196E817F4
:100D5000F907B1F7089590E09C01220F331F220F8D
:100D6000331F820F931F20E030E0805A9109A09139
:100D70000001B0910101FC01E20FF31FE65EFD4F9F
:100D8000E491EC932F5F3F4F2530310581F7A0911F
:100D90000001B0910101EAE1F2E0E491EC93A0914D
:100DA0000001B0910101EBE1F2E0E491EC93A0913C
:100DB0000001B0910101ECE1F2E0E491EC930895BF
:100DC00090E0FC01EE0FFF1FEE0FFF1FE25EFF4FF2
:100DD000880F991F880F991F8E5D9F4FA09100016A
:100DE000B091010124912C933196E817F907B1F7DE
:100DF000EAE1F2E02EE132E0A0910001B0910101C0
:100E000084918C9331962E173F07B1F70895EF9296
:100E1000FF920F931F93CF93DF93EC018881882378
:100E2000E1F1219608E813E00F2EF1E2EF2EF02D0C
:100E30000F2EFFE7FF2EF02D8A3049F580918803B1
:100E4000909189038630910529F4109289031092BC
:100E5000880305C001969093890380938803E091ED
:100E60000201F0910301D8018C9180558083E091BB
:100E70000201F0910301E082E0910201F09103018F
:100E80001082E0910201F0910301F08203C065E05D
:100E90000E94860689918111CFCFDF91CF911F915A
:100EA0000F91FF90EF900895DF92EF92FF920F93D2
:100EB0001F93CF93DF93EC0188818823E9F1F62E0D
:100EC000219608E813E00F2EF1E2DF2EF02D0F2E11
:100ED000FFE7EF2EF02D8A3049F58091880390913D
:100EE00089038630910529F41092890310928803B2
:100EF00005C001969093890380938803E0910201D5
:100F0000F0910301D8018C9180558083E09102011A
:100F1000F0910301D082E0910201F091030110826F
:100F2000E0910201F0910301E08203C06F2D0E9465
:100F3000860689918111CFCFDF91CF911F910F91BB
:100F4000FF90EF90DF90089528E030E00AC0E09134
:100F50000001F091010110820197C9F72150310978
:100F600019F080E890E0F3CF089530EB2FEFE09197
:100F70000201F0910301308380E090E0E0910001F4
:100F8000F0910101E80FF91F208301968038910547
:100F9000A9F73F5F383B59F70895E0910201F091BE
:100FA00003018EEA8083E0910201F091030181EA5E
:100FB0008083E0910201F09103018AED8083E0914A
:100FC0000201F091030182E18083E0910201F0913E
:100FD000030188EC8083E0910201F091030188EA2B
:100FE0008083E0910201F09103018FE38083E0911F
:100FF0000201F091030185ED8083E0910201F091FF
:10100000030180E88083E0910201F091030181E80F
:101010008083E0910201F091030180E58083E091FB
:101020000201F091030189ED8083E0910201F091CA
:10103000030181E28083E0910201F091030190E2DB
:101040009083E0910201F09103011082E09102018E
:10105000F09103018083E0910201F091030110827D
:10106000E0910201F09103018FE78083E09102019A
:10107000F091030182E28083E0910201F09103018B
:101080001082E0910201F091030187E08083E091FA
:101090000201F09103018BED8083E0910201F09158
:1010A000030180E38083E0910201F09103018DEA66
:1010B0008083E0910201F09103011082E09102012E
:1010C000F091030184EA8083E0910201F091030131
:1010D00086EA8083E0910201F09103018FEA808328
:1010E000089587B3806B87BB8DB181618DB96E9A8E
:1010F00008958FB9779BFECF08958FEF0E947908EE
:101100008FB10895C4980895C49A0895CF93C82FB5
:101110000E94820883E00E9479088C2F0E9479083F
:101120000E947D08C82F0E9484088C2FCF910895BB
:10113000CF93DF93D82FC62F0E94820882E00E94AF
:1011400079088D2F0E9479088C2F0E9479080E94BF
:101150008408DF91CF910895CF93C62F0E9486080F
:1011600021E030E002C0220F331FCA95E2F790E081
:1011700082239323CF910895CF93C82F0E94820892
:101180008C2F80680E9479080E948408CF9108956E
:10119000CF930E94820880EA0E9479080E947D080D
:1011A000C82F80E00E9479080E9484088C2FCF917C
:1011B00008950E94820880EC0E9479080E948408A9
:1011C00008951F93CF93DF93D82F162FC42F0E941B
:1011D000820885E00E947908812F0E9479088D2F6E
:1011E0000E9479088C2F0E9479080E948408DF9160
:1011F000CF911F9108950E9471080E94D90840E084
:101200006FE080EE0E94E10840E660E680E60E9422
:10121000E10841E06BE281E00E94E1080895CF928D
:10122000DF92EF92FF920F931F93CF93DF93CDB78F
:10123000DEB72B970FB6F894DEBF0FBECDBFE982A5
:10124000FA820B831C832D833E834F8358876987E3
:101250007A878B87E980FA80B701769567957695CE
:1012600067957695679581E30E9498084E2D429583
:10127000440F407E62E380EE0E94E108402F65E368
:101280008FE00E94E1080023A9F07E0124E0E20E35
:10129000F11CCE01800F911DFC0134966F0116E305
:1012A000F70161917F01812F0E9498081F5FEC1464
:1012B000FD04B1F781E00E94BC082B960FB6F894AC
:1012C000DEBF0FBECDBFDF91CF911F910F91FF9079
:1012D000EF90DF90CF90089563E080E30E94AC0828
:1012E000089560E08CE20E94AC0808958F929F926E
:1012F000AF92BF92CF92DF92EF92FF920F931F9324
:10130000CF93DF93CDB7DEB72B970FB6F894DEBF40
:101310000FBECDBF4C0160E08CE20E94AC08892B6F
:1013200099F181E60E948608A82E82E60E9486082E
:10133000B12CAA0CBB1CAA0CBB1CAA0CBB1C829512
:1013400086958770A82A85E60E948608082F0F7068
:10135000A9F07E0124E0E20EF11CCE01800F911D68
:10136000FC0134966F0116E6812F0E948608F70172
:1013700081937F011F5FEC15FD05B1F740E06CE242
:1013800083E00E94E10808C08AE092E09F938F9377
:101390000E944C140F900F90BA82A9820B838BE0AD
:1013A000FE013196D40101900D928A95E1F7C401B6
:1013B0002B960FB6F894DEBF0FBECDBFDF91CF9155
:1013C0001F910F91FF90EF90DF90CF90BF90AF9063
:1013D0009F908F900895EF92FF920F931F93CF935A
:1013E000DF93CDB7DEB72B970FB6F894DEBF0FBEF5
:1013F000CDBF81E090E09A83898387E08B8384E08E
:1014000090E00E9498048C8385E090E00E9498040C
:101410008D830E9451068E830E9414068F830E9442
:101420002E0688870E94480689870E944C06E9801C
:10143000FA800B811C812D813E814F815885698501
:10144000782F8B850E940F092B960FB6F894DEBF7C
:101450000FBECDBFDF91CF911F910F91FF90EF9005
:1014600008950F931F93CF93DF93CDB7DEB7CC577B
:10147000D1090FB6F894DEBF0FBECDBF0AE813E066
:101480004AE0BE016F5F7F4FF801808191810E9429
:10149000DC134AE0BE01675F7F4FF80182819381D0
:1014A0000E94DC134AE0BE016F5E7F4FF801848129
:1014B00095810E94DC138E01075E1F4F81E39EE23F
:1014C0009A8F898F80E290E0F80193838283BE0136
:1014D0006F5F7F4FC8010E94D113D8010D9000208B
:1014E000E9F7119785E0E6E2F2E001900D928A9526
:1014F000E1F7BE01675F7F4FC8010E94D113D80199
:101500000D900020E9F7119785E0EBE2F2E0019001
:101510000D928A95E1F7BE016F5E7F4FC8010E9470
:10152000D11380E090E0C458DF4F0FB6F894DEBFCF
:101530000FBECDBFDF91CF911F910F9108958F9274
:101540009F92AF92BF92CF92DF92EF92FF920F9352
:101550001F93CF93DF93CDB7DEB760970FB6F894A4
:10156000DEBF0FBECDBFA982BA82CB82DC82ED8204
:10157000FE820F83188729873A874B875C876D87A0
:101580007E878F87988BCF84D88868E08D859E85ED
:101590000E94540780E392E00E9407070B811C81A0
:1015A0000115110599F15E0185E0A80EB11CE12C31
:1015B000F12C8E149F0449F4EFEFCE16DE0659F09D
:1015C00084E392E00E94070706C0DD2024F087E351
:1015D00092E00E940707F801848595850E9407071D
:1015E00086E893E00E940707FFEFEF1AFF0AF50174
:1015F000019111915F0101151105D9F606E010E086
:101600000E191F090130110519F40EC006E010E093
:10161000CD20C09449F086E893E00E94070701506E
:10162000110901301105B9F760960FB6F894DEBFC5
:101630000FBECDBFDF91CF911F910F91FF90EF9023
:10164000DF90CF90BF90AF909F908F900895CF93F1
:10165000DF9300D000D000D0CDB7DEB720918A0351
:1016600030918B03281739075CF43C832B8320913E
:101670008C0330918D033E832D839A8389831BC015
:1016800040918C0350918D03481759073CF43A83DD
:1016900029835E834D839C838B830DC060918E0371
:1016A00070918F0368177907A4F43A8329835C83C8
:1016B0004B839E838D83EAE8F3E089819A8191834D
:1016C00080838B819C81938382838D819E8195838E
:1016D000848326960FB6F894DEBF0FBECDBFDF9190
:1016E000CF910895CF93DF93CDB7DEB7C956D10917
:1016F0000FB6F894DEBF0FBECDBF4AE0BE016F5FEC
:101700007F4F0E94DC1388E0EAE3F2E0DE011696E8
:1017100001900D928A95E1F7BE016F5F7F4FCE0178
:1017200006960E94D11380E090E0C759DF4F0FB6B4
:10173000F894DEBF0FBECDBFDF91CF910895AF9279
:10174000BF92CF92DF92EF92FF920F931F93CF93AE
:10175000DF93CDB7DEB7E2970FB6F894DEBF0FBECA
:10176000CDBF8E010F5F1F4F82E3F80111928A9562
:10177000E9F787E893E09A8389839C838B839E8330
:101780008D8398878F839A8789879C878B879E878D
:101790008D8722E432E0388B2F872EE432E03A8BBB
:1017A000298B25E532E03C8B2B8B23E632E03E8B08
:1017B0002D8B27E632E0388F2F8B9A8F898F9C8F65
:1017C0008B8F9E8F8D8F98A38F8F9AA389A39CA3B5
:1017D0008BA39EA38DA398A78FA39AA789A70E94E6
:1017E000A30468015E01FBE1AF0EB11C2AC068E0F2
:1017F000F801819191918F010E94540786E893E04E
:101800000E9407070E151F0591F70E94CE05892B30
:1018100039F08FE493EC0197F1F700C0000009C0A4
:101820009FE7EAE1F6E09150E040F040E1F700C0C8
:1018300000000E94A40722E0C20ED11CAC14BD041B
:1018400031F076018EE0E80EF11C8601D0CF0E94C7
:10185000A40768E083E792E00E94540765E083E80C
:1018600092E00E9454070E945106892BE1F30E94E6
:101870005106892BE1F7E2960FB6F894DEBF0FBE52
:10188000CDBFDF91CF911F910F91FF90EF90DF902F
:10189000CF90BF90AF900895CF93DF93CDB7DEB7D1
:1018A000C95AD1090FB6F894DEBF0FBECDBF0E9452
:1018B000A4070E949F0B3E0121E5620E711CCE0120
:1018C00001962C01F3019183808380969383828318
:1018D00040979583848382E090E09787868787EAA4
:1018E00092E0958784877A8A698A1C8A1B8A81EBB1
:1018F00092E09E8F8D8F7AA269A288EB92E09EA7DC
:101900008DA7A3965FAE4EAEA3971E01F1E42F0EF6
:10191000311CA5963FAE2EAEA5970FEF1FEFE196B7
:101920001FAF0EAFE1978FEB92E0AF969FAF8EAFF8
:10193000AF970E94310A21E630E02C0F3D1FF101E4
:1019400031832083138212821787068795878487C5
:10195000F09651824082CE01C1969383828317878D
:1019600006878BEC92E095878487FAABE9AB1CAADB
:101970001BAA21961FAF0EAF219783ED92E09EAF79
:101980008DAF1A8219827C826B823E832D83F88709
:10199000EF8382E193E09E878D8783E090E0988BD0
:1019A0008F870E94A407812C912CA980BA80CB80BC
:1019B000DC80ED80FE800F81188529853A854B8576
:1019C0005C856D857E858F8598890E949F0A80E160
:1019D000F201DE01AF57BF4F01900D928A95E1F7FA
:1019E00069807A808D859E85C955DF4F998388836C
:1019F000C75AD0404F845888312C222423940E9407
:101A0000CE059F938F93ECE1F3E0FF93EF930E9459
:101A10004C1485E393E09F938F930E944C1422E033
:101A200030E0CF56DF4F39832883C159D04036E0AC
:101A3000CD56DF4F3883C359D040CC56DF4F288274
:101A4000C459D0400E94CE050F900F900F900F9078
:101A50000F900F90039709F07FC0332009F47CC0EA
:101A60008FEF4816580609F477C00E94A4073A94ED
:101A7000A62CCF57DF4F79826882C158D040C95514
:101A8000DF4FE881C75AD040C955DF4F28813981DF
:101A9000C75AD040C357DF4F39832883CD58D04031
:101AA000C157DF4F59824882CF58D040832D90E0F4
:101AB000B2010E949A104C01CE57DF4FB880C25835
:101AC000D040CD57DF4FC880C358D040CC57DF4FF0
:101AD000D880C458D040CB57DF4FE880C558D0409D
:101AE000CA57DF4FF880C658D040C957DF4F08812A
:101AF000C758D040C857DF4F1881C858D040C75783
:101B0000DF4F2881C958D040C657DF4F3881CA58A7
:101B1000D040C557DF4F4881CB58D040C457DF4F26
:101B20005881CC58D0406E2FC257DF4F7881CE58A5
:101B3000D040842DC057DF4F9881C059D0400E94BB
:101B40009F0A06C083ED90E30197F1F700C0000003
:101B50000E94CE05892BB1F70E94CE05049709F0AB
:101B600085C0832D90E0920121503109821793079F
:101B700009F47CC091E04916510409F4C8C20E94DE
:101B8000A4073394A62CCF57DF4F79826882C158BF
:101B9000D040C955DF4FE881C75AD040C955DF4F03
:101BA00028813981C75AD040C357DF4F39832883F2
:101BB000CD58D040C157DF4F59824882CF58D040CE
:101BC000832D90E0B2010E949A104C01CE57DF4F56
:101BD000B880C258D040CD57DF4FC880C358D040DE
:101BE000CC57DF4FD880C458D040CB57DF4FE88068
:101BF000C558D040CA57DF4FF880C658D040C957A3
:101C0000DF4F0881C758D040C857DF4F1881C858E8
:101C1000D040C757DF4F2881C958D040C657DF4F43
:101C20003881CA58D040C557DF4F4881CB58D04083
:101C3000C457DF4F5881CC58D0406E2FC257DF4F6A
:101C40007881CE58D040842DC057DF4F9881C0593D
:101C5000D0400E949F0A06C083ED90E30197F1F700
:101C600000C000000E94CE05892BB1F70E94CE056E
:101C7000019709F0A7C19FEF4916590609F4A2C1BF
:101C80000E94A407E32DF0E03196EE0FFF1F21E83C
:101C900030E02C0F3D1FE20FF31F8081918120E186
:101CA000FC01DE01AF57BF4F01900D922A95E1F77D
:101CB000FC016080718024853585C955DF4F3983EB
:101CC0002883C75AD0404684578488248394912C13
:101CD000A980BA80CB80DC80ED80FE800F811885E2
:101CE00029853A854B855C856D857E858F859889AC
:101CF0000E949F0AC955DF4F88819981C75AD040F9
:101D0000E2E0813B9E0729F0885B924009F0E8C041
:101D100004C282E5CC56DF4F8883C459D0400E946C
:101D2000A40787E493E00E940707C955DF4F288185
:101D30003981C75AD040285B324061F485E4CC56E3
:101D4000DF4F8883C459D0400E94A40784E693E003
:101D50000E940707CF56DF4FE880C159D040CE56CA
:101D6000DF4FF880C259D040CD56DF4F0881C359AC
:101D7000D040CC56DF4F1881C459D040CB56DF4FEE
:101D80002881C559D040CA56DF4F3881C659D04046
:101D9000C956DF4F4881C759D040C856DF4F5881D8
:101DA000C859D040C756DF4F6881C959D040C65680
:101DB000DF4F7881CA59D040C556DF4F8881CB5953
:101DC000D0400E940F090E94EB0982E090E00E943F
:101DD000720B6894AA24A1F8B12C19C00E94EB09D7
:101DE00092E0A90EB11CC5010E94720B3C01C50115
:101DF00064E670E00E949A10892B49F40E94A407BF
:101E0000C3010E94070780E893E00E9407070E9431
:101E10007109892B19F3CC56DF4F1882C459D04071
:101E2000CF56DF4FE880C159D040CE56DF4FF88003
:101E3000C259D040CD56DF4F0881C359D04010E081
:101E4000CB56DF4F2881C559D040CA56DF4F388165
:101E5000C659D040C956DF4F4881C759D040C856EF
:101E6000DF4F5881C859D040C756DF4F6881C959E4
:101E7000D040C656DF4F7881CA59D040C556DF4F93
:101E80008881CB59D0400E940F09CE0184569F4FC4
:101E90000E947609C5010E94270B0E94310A2F96E5
:101EA0009FAF8EAF2F9780E1FE01EF59FF4FDE010C
:101EB000AF57BF4F01900D928A95E1F7A3966EAC94
:101EC0007FACA397AF96EEADFFADAF97C955DF4F8F
:101ED000F983E883C75AD040E1964EAC5FACE197F6
:101EE0000E94A407A62CCF57DF4F79826882C15881
:101EF000D040C955DF4F6881C75AD040C955DF4F20
:101F000028813981C75AD040C357DF4F398328838E
:101F1000CD58D040C157DF4F59824882CF58D0406A
:101F2000812C912CCE57DF4FB880C258D040CD576E
:101F3000DF4FC880C358D040CC57DF4FD880C4583B
:101F4000D040CB57DF4FE880C558D040CA57DF4F4D
:101F5000F880C658D040C957DF4F0881C758D040D5
:101F6000C857DF4F1881C858D040C757DF4F288166
:101F7000C958D040C657DF4F3881CA58D040C557DE
:101F8000DF4F4881CB58D040C457DF4F5881CC58E1
:101F9000D040C257DF4F7881CE58D040842DC057F3
:101FA000DF4F9881C059D0400E949F0A06C083ED40
:101FB00090E30197F1F700C000000E94CE05892B45
:101FC000B1F7312C0E944806892B09F418CD611411
:101FD000710409F414CD0E94A40780E1F301DE012D
:101FE000AF57BF4F01900D928A95E1F7F301308012
:101FF000F181C755DF4FF883C95AD040F3010484FB
:10200000F585E02DC955DF4FF983E883C75AD040E5
:10201000F30146845784A32CCF57DF4F3882C15831
:10202000D040C755DF4FF881C95AD040CE57DF4F57
:10203000F883C258D040C955DF4F6881C75AD04095
:10204000C955DF4F28813981C75AD040C357DF4F68
:1020500039832883CD58D040C157DF4F59824882F9
:10206000CF58D040812C912CBF2ECD57DF4FC88048
:10207000C358D040CC57DF4FD880C458D040CB573E
:10208000DF4FE880C558D040CA57DF4FF880C658A8
:10209000D040C957DF4F0881C758D040C857DF4FDD
:1020A0001881C858D040C757DF4F2881C958D04041
:1020B000C657DF4F3881CA58D040C557DF4F4881D7
:1020C000CB58D040C457DF4F5881CC58D040C2576E
:1020D000DF4F7881CE58D040842DC057DF4F988194
:1020E000C059D0400E949F0A06C083ED90E301973B
:1020F000F1F700C000000E944806892BB1F7632C5D
:10210000C755DF4F7880C95AD040312C78CC0E9417
:10211000CE05019709F056CFB3CDE8EBF2E0E15BD5
:10212000F24009F00BCE0E94A40787E493E00E94DE
:10213000070704CE97FB072E16F4009407D077FD0F
:1021400009D00E94CD1007FC05D03EF490958195F2
:102150009F4F0895709561957F4F0895052E97FBC9
:102160001EF400940E94C51057FD07D00E94E11094
:1021700007FC03D04EF40C94C51050954095309553
:1021800021953F4F4F4F5F4F0895909580957095E3
:1021900061957F4F8F4F9F4F0895AA1BBB1B51E145
:1021A00007C0AA1FBB1FA617B70710F0A61BB70BC7
:1021B000881F991F5A95A9F780959095BC01CD016C
:1021C0000895A1E21A2EAA1BBB1BFD010DC0AA1F78
:1021D000BB1FEE1FFF1FA217B307E407F50720F090
:1021E000A21BB30BE40BF50B661F771F881F991F0B
:1021F0001A9469F760957095809590959B01AC0154
:10220000BD01CF0108955058BB27AA270E941B117A
:102210000C94C2120E94B41238F00E94BB1220F03B
:1022200039F49F3F19F426F40C948A120EF4E095C9
:10223000E7FB0C948412E92F0E94D31258F3BA17CB
:10224000620773078407950720F079F4A6F50C94CC
:10225000F5120EF4E0950B2EBA2FA02D0B01B9014B
:1022600090010C01CA01A0011124FF27591B99F00C
:10227000593F50F4503E68F11A16F040A22F232F18
:10228000342F4427585FF3CF469537952795A79568
:10229000F0405395C9F77EF41F16BA0B620B730B0F
:1022A000840BBAF09150A1F0FF0FBB1F661F771F80
:1022B000881FC2F70EC0BA0F621F731F841F48F435
:1022C000879577956795B795F7959E3F08F0B0CFBE
:1022D0009395880F08F09927EE0F979587950895A5
:1022E000DF93DD27B92FBF7740E85FE316161706A7
:1022F00048075B0718F4D92F0E94FC129F938F9315
:102300007F936F930E947113E0E7F0E00E948D12BB
:102310000E94C2122F913F914F915F910E9417131B
:10232000DD2351F09058A2EA2AED3FE049EC5FE34B
:10233000D0785D270E941B11DF910C94C2120E947D
:10234000B3110C94C2120E94BB1258F00E94B41236
:1023500040F029F45F3F29F00C94841251110C9441
:10236000F6120C948A120E94D31268F39923B1F3E7
:10237000552391F3951B550BBB27AA2762177307AB
:10238000840738F09F5F5F4F220F331F441FAA1F3F
:10239000A9F335D00E2E3AF0E0E832D091505040FB
:1023A000E695001CCAF72BD0FE2F29D0660F771FA9
:1023B000881FBB1F261737074807AB07B0E809F08F
:1023C000BB0B802DBF01FF2793585F4F3AF09E3F14
:1023D000510578F00C9484120C94F6125F3FE4F3EC
:1023E000983ED4F3869577956795B795F7959F5F57
:1023F000C9F7880F911D9695879597F90895E1E0A3
:10240000660F771F881FBB1F621773078407BA0701
:1024100020F0621B730B840BBA0BEE1F88F7E0955C
:1024200008950E9418126894B1110C94F612089540
:102430000E94DB1288F09F5798F0B92F9927B75167
:10244000B0F0E1F0660F771F881F991F1AF0BA9558
:10245000C9F714C0B13091F00E94F512B1E00895AF
:102460000C94F512672F782F8827B85F39F0B93FA1
:10247000CCF3869577956795B395D9F73EF490950B
:102480008095709561957F4F8F4F9F4F0895E89489
:1024900009C097FB3EF490958095709561957F4FAC
:1024A0008F4F9F4F9923A9F0F92F96E9BB2793955A
:1024B000F695879577956795B795F111F8CFFAF46A
:1024C000BB0F11F460FF1BC06F5F7F4F8F4F9F4F9B
:1024D00016C0882311F096E911C0772321F09EE8F9
:1024E000872F762F05C0662371F096E8862F70E05F
:1024F00060E02AF09A95660F771F881FDAF7880F39
:102500009695879597F9089597F99F6780E870E009
:1025100060E008959FEF80EC0895DF93CF931F93C1
:102520000F93FF92EF92DF927B018C01689406C0BB
:10253000DA2EEF010E941713FE01E894A591259170
:10254000359145915591A6F3EF010E941B11FE01B3
:102550009701A801DA9469F7DF90EF90FF900F914F
:102560001F91CF91DF91089500240A941616170643
:1025700018060906089500240A9412161306140674
:1025800005060895092E0394000C11F4882352F0D7
:10259000BB0F40F4BF2B11F460FF04C06F5F7F4F8F
:1025A0008F4F9F4F089557FD9058440F551F59F076
:1025B0005F3F71F04795880F97FB991F61F09F3F30
:1025C00079F087950895121613061406551FF2CF59
:1025D0004695F1DF08C0161617061806991FF1CFA9
:1025E00086957105610508940895E894BB276627D0
:1025F0007727CB0197F908959B01AC0160E070E06B
:1026000080E89FE30C949F110E9417130C94C21250
:102610000E94B41238F00E94BB1220F0952311F0F2
:102620000C9484120C948A1211240C94F6120E94B9
:10263000D31270F3959FC1F3950F50E0551F629F21
:10264000F001729FBB27F00DB11D639FAA27F00D0B
:10265000B11DAA1F649F6627B00DA11D661F829F32
:102660002227B00DA11D621F739FB00DA11D621F17
:10267000839FA00D611D221F749F3327A00D611D34
:10268000231F849F600D211D822F762F6A2F112416
:102690009F5750409AF0F1F088234AF0EE0FFF1F49
:1026A000BB1F661F771F881F91505040A9F79E3FA0
:1026B000510580F00C9484120C94F6125F3FE4F301
:1026C000983ED4F3869577956795B795F795E795F6
:1026D0009F5FC1F7FE2B880F911D9695879597F9FF
:1026E00008959B01AC010C9404138F929F92AF92BA
:1026F000BF92CF92DF92EF92FF92CF93DF93EC01E4
:10270000688179818A819B816115710581059105B7
:1027100021F464E279ED8BE597E02DE133EF41E0C0
:1027200050E00E94AE1049015A019B01AC01A7EA9A
:10273000B1E40E9447186B017C01ACEEB4EFA50137
:1027400094010E945518DC01CB018C0D9D1DAE1D1E
:10275000BF1DB7FF03C00197A109B04888839983C3
:10276000AA83BB839F77DF91CF91FF90EF90DF909B
:10277000CF90BF90AF909F908F9008950E94751357
:10278000089584E091E00E9475130895A0E0B0E000
:102790008093040190930501A0930601B093070173
:1027A0000895FB01DC010D900020E9F711970190DD
:1027B0000D920020E1F70895BB274A3031F49923A8
:1027C00022F4BDE2909581959F4F0C94E813BB27AE
:1027D000FB015527AA27880F991FAA1FA41710F0DD
:1027E000A41B83955051B9F7A05DAA3308F0A95DE9
:1027F000A193009779F7B111B1931192CB010C9489
:102800009D170F931F93CF93DF93009731F46115BA
:10281000710519F480E090E03AC08B01EC016EE0A4
:1028200070E081E090E00E944316FC01892B91F357
:1028300080E883830115110571F01387028781E811
:1028400083838091940390919503892B21F4F093D5
:102850009503E09394032097C9F0D187C0878381C3
:10286000826083838091960390919703892B71F402
:10287000F0939703E09396038091980390919903C6
:10288000892B21F4F0939903E0939803CF01DF9112
:10289000CF911F910F910895A0E0B0E0E2E5F4E13F
:1028A0000C946A18AE014B5F5F4FFA016191719110
:1028B000AF0180919603909197030E946214E2E029
:1028C0000C948618ABE0B0E0E8E6F4E10C945A18FA
:1028D0006C017B018A01FC0117821682838181FFD2
:1028E000CCC1CE0101963C01F6019381F70193FD25
:1028F000859193FF81917F01882309F4BAC18532C4
:1029000039F493FD859193FF81917F01853229F4FC
:10291000B60190E00E94AD17E7CF912C212C312C0D
:10292000FFE1F315D8F08B3279F038F4803279F08A
:102930008332A1F4232D20611DC08D3261F08033DC
:1029400069F4232D216016C0832D8260382EE32D7B
:10295000E4603E2E2AC0F32DF8601DC037FC2DC068
:1029600020ED280F2A3040F08E32B9F436FC81C1B8
:10297000232D2064322E19C036FE06C08AE0989EB0
:10298000200D1124922E11C0EAE02E9E200D11245C
:10299000222EF32DF0623F2E08C08C3621F4832DB9
:1029A0008068382E02C0883641F4F70193FD859186
:1029B00093FF81917F018111B3CF982F9F7D955413
:1029C000933028F40C5F1F4F9FE399830DC083362B
:1029D00031F0833771F0833509F059C021C0F80117
:1029E000808189830E5F1F4F88248394912C53012B
:1029F00013C02801F2E04F0E511CF801A080B180F5
:102A000036FE03C0692D70E002C06FEF7FEFC50195
:102A10000E9492174C018201F32DFF773F2E16C0C2
:102A2000280122E0420E511CF801A080B18036FE40
:102A300003C0692D70E002C06FEF7FEFC5010E94F7
:102A400080174C01F32DF0683F2E820133FC1BC030
:102A5000822D90E088169906B0F4B60180E290E0ED
:102A60000E94AD172A94F4CFF50137FC859137FE0B
:102A700081915F01B60190E00E94AD1721102A9468
:102A800021E0821A91088114910471F7E8C084361C
:102A900011F0893641F5F80137FE07C06081718178
:102AA000828193810C5F1F4F08C060817181072E66
:102AB000000C880B990B0E5F1F4FF32DFF763F2EF6
:102AC00097FF09C090958095709561957F4F8F4FC6
:102AD0009F4FF0683F2E2AE030E0A3010E94E917E3
:102AE000882E861845C0853731F4232D2F7EB22ECF
:102AF0002AE030E025C0932D997FB92E8F36C1F0A2
:102B000018F4883579F0B5C0803719F0883721F08E
:102B1000B0C0E92FE061BE2EB4FE0DC0FB2DF46005
:102B2000BF2E09C034FE0AC0292F2660B22E06C06F
:102B300028E030E005C020E130E002C020E132E0D2
:102B4000F801B7FE07C060817181828193810C5FBB
:102B50001F4F06C06081718180E090E00E5F1F4FC3
:102B6000A3010E94E917882E8618FB2DFF773F2EC0
:102B700036FE0DC0232D2E7FA22E891458F434FE6C
:102B80000BC032FC09C0832D8E7EA82E05C0B82C48
:102B9000A32C03C0B82C01C0B92CA4FE0FC0FE01A9
:102BA000E80DF11D8081803321F49A2D997EA92EA4
:102BB00009C0A2FE06C0B394B39404C08A2D8678DF
:102BC00009F0B394A3FC11C0A0FE06C0B21488F4AF
:102BD000280C922C9B180EC0B21460F4B60180E24F
:102BE00090E00E94AD17B394F7CFB21418F42B18ED
:102BF00002C0982C212CA4FE10C0B60180E390E006
:102C00000E94AD17A2FE17C0A1FC03C088E790E0A8
:102C100002C088E590E0B6010CC08A2D867859F094
:102C2000A1FE02C08BE201C080E2A7FC8DE2B601EA
:102C300090E00E94AD17891438F4B60180E390E06B
:102C40000E94AD179A94F7CF8A94F301E80DF11D15
:102C50008081B60190E00E94AD178110F5CF22204F
:102C600009F442CEB60180E290E00E94AD172A94AA
:102C7000F6CFF6018681978102C08FEF9FEF2B96EA
:102C8000E2E10C9476180F931F93CF93DF93869F06
:102C90008001879F100D969F100D1124C8010E947E
:102CA0005F16EC01009729F0A80160E070E00E9437
:102CB0008B17CE01DF91CF911F910F9108950F9344
:102CC0001F93CF93DF938230910510F482E090E060
:102CD000E0919C03F0919D0320E030E0A0E0B0E0A3
:102CE000309719F1408151810281138148175907AA
:102CF000C8F08417950769F4109731F012960C9379
:102D0000129713961C9327C000939C0310939D0366
:102D100022C02115310519F04217530718F49A0102
:102D2000BD01EF01DF01F801DBCF21153105F9F01D
:102D3000281B390B2430310580F48A819B81611571
:102D4000710521F0FB019383828304C090939D035E
:102D500080939C03FE01329644C0FE01E20FF31FF4
:102D60008193919322503109398328833AC020916D
:102D70009A0330919B03232B41F420910A01309157
:102D80000B0130939B0320939A032091080130910B
:102D900009012115310541F42DB73EB740910C01D1
:102DA00050910D01241B350BE0919A03F0919B0388
:102DB000E217F307A0F42E1B3F0B2817390778F012
:102DC000AC014E5F5F4F2417350748F04E0F5F1F71
:102DD00050939B0340939A038193919302C0E0E048
:102DE000F0E0CF01DF91CF911F910F910895CF9324
:102DF000DF93009709F481C0FC013297138212829D
:102E0000A0919C03B0919D03109781F420813181A2
:102E1000820F931F20919A0330919B032817390743
:102E200051F5F0939B03E0939A0367C0ED0120E016
:102E300030E0CE17DF0740F44A815B819E014115E7
:102E40005105F1F0EA01F5CFD383C283408151816E
:102E5000840F951FC817D90759F488819981840F69
:102E6000951F0296918380838A819B8193838283BD
:102E70002115310529F4F0939D03E0939C033DC097
:102E8000E901FB83EA8349915991C40FD51FEC17DF
:102E9000FD0761F480819181840F951F0296E901FD
:102EA00099838883828193819B838A83E0E0F0E029
:102EB00012968D919C911397009719F0FD01DC01FA
:102EC000F7CF8D919C9111979D012E5F3F4F820FFF
:102ED000931F20919A0330919B032817390769F4B7
:102EE000309729F410929D0310929C0302C0138224
:102EF0001282B0939B03A0939A03DF91CF91089520
:102F0000FC010590615070400110D8F780959095B4
:102F10008E0F9F1F0895DC0101C06D9341505040FA
:102F2000E0F70895FC016150704001900110D8F75E
:102F3000809590958E0F9F1F0895DC01FC01672FEF
:102F400071917723E1F7329704C07C916D93708380
:102F50006291AE17BF07C8F308950F931F93CF93E5
:102F6000DF93FB01238121FD03C08FEF9FEF2CC076
:102F700022FF16C0468157812481358142175307AD
:102F800044F4A081B1819D012F5F3F4F31832083A5
:102F90008C93268137812F5F3F4F3783268314C060
:102FA0008B01EC01FB010084F185E02D0995892B53
:102FB000E1F6D80116968D919C9117970196179678
:102FC0009C938E931697CE01DF91CF911F910F9115
:102FD0000895FA01AA27283051F1203181F1E894AF
:102FE0006F936E7F6E5F7F4F8F4F9F4FAF4FB1E0FC
:102FF0003ED0B4E03CD0670F781F891F9A1FA11DF7
:10300000680F791F8A1F911DA11D6A0F711D811DF7
:10301000911DA11D20D009F468943F912AE0269FBC
:1030200011243019305D3193DEF6CF010895462F1B
:103030004770405D4193B3E00FD0C9F7F6CF462FFC
:103040004F70405D4A3318F0495D31FD4052419365
:1030500002D0A9F7EACFB4E0A69597958795779522
:103060006795BA95C9F700976105710508959B01A9
:10307000AC010A2E06945795479537952795BA9532
:10308000C9F7620F731F841F951FA01D08950E942A
:103090009118A59F900DB49F900DA49F800D911D38
:1030A00011240895B7FF0C9447180E944718821BFB
:1030B000930B08952F923F924F925F926F927F925F
:1030C0008F929F92AF92BF92CF92DF92EF92FF9238
:1030D0000F931F93CF93DF93CDB7DEB7CA1BDB0BE4
:1030E0000FB6F894DEBF0FBECDBF09942A88398889
:1030F00048885F846E847D848C849B84AA84B98490
:10310000C884DF80EE80FD800C811B81AA81B9819B
:10311000CE0FD11D0FB6F894DEBF0FBECDBFED01AF
:103120000895A29FB001B39FC001A39F700D811DA0
:103130001124911DB29F700D811D1124911D0895C0
:04314000F894FFCF31
:10314400001200100100000000009E0320005374D0
:10315400617274696E67205352414D2074657374B3
:103164002E2E2E0A0D0057726974652070686173E3
:1031740065206572726F723A206578745F72616D52
:103184005B2534645D203D20253032582028736847
:103194006F756C642062652025303258290A0D0051
:1031A40052657472696576616C207068617365201C
:1031B4006572726F723A206578745F72616D5B2517
:1031C40034645D203D2025303258202873686F75A3
:1031D4006C642062652025303258290A0D00535250
:1031E400414D207465737420636F6D706C657465F4
:1031F400642077697468200A0D253464206572722E
:103204006F727320696E20777269746520706861CB
:10321400736520616E64200A0D2534642065727222
:103224006F727320696E2072657472696576616C61
:103234002070686173650A0A0D004E0052004C004C
:10324400550044006572726F720043616E6E6F7454
:1032540020726561642066726F6D2043414E206266
:103264007573200A0D000A322E20000A332E200026
:103274000A200A002D3E0020200053636F72652E41
:10328400200041206C6F6E672074696D6500616772
:103294006F20696E00612073616E6E74696473736C
:1032A400616C006661720066617220617761792EDB
:1032B4002E2E0050696E6720706F6E672067616DF7
:1032C400650A000A200A207072657373206A6F7998
:1032D400737469636B200A20746F20636F6E746962
:1032E4006E75650A0A0A00506C61792067616D6524
:1032F40000526F6F6B696500457870657274004C9D
:103304006561646572626F617264004372656469C9
:1033140074730045696C656620204F2E0A4D6172F6
:1033240074696E20532E0A41736765697220482EB2
:103334000A496E2072656D656D6272616E63652007
:103344000A6F66206865726F6963206566666F72CE
:1033540074004D61696E206D656E75004469726517
:103364006374696F6E3A20202020202020202020C2
:1033740025640A0D00205669646572657266C3B8D7
:1033840072696E670A0D00506C6179696E6720720C
:103394006F6F6B6965200A206D6F6465200A0A0AE5
:1033A4000A0A0A00506C6179696E67206578706555
:1033B4007274200A6D6F6465200A0A0A0A0A0A00F8
:0833C4000A0A0A0A0A0A0A00BB
:00000001FF
